{
  "contractName": "Simple",
  "abi": [
    {
      "constant": false,
      "inputs": [
        {
          "name": "x",
          "type": "uint256"
        }
      ],
      "name": "set_num",
      "outputs": [],
      "payable": false,
      "stateMutability": "nonpayable",
      "type": "function"
    },
    {
      "constant": false,
      "inputs": [],
      "name": "inc_num",
      "outputs": [],
      "payable": false,
      "stateMutability": "nonpayable",
      "type": "function"
    },
    {
      "constant": false,
      "inputs": [],
      "name": "dec_num",
      "outputs": [],
      "payable": false,
      "stateMutability": "nonpayable",
      "type": "function"
    },
    {
      "constant": true,
      "inputs": [],
      "name": "reveal_num",
      "outputs": [
        {
          "name": "",
          "type": "uint256"
        }
      ],
      "payable": false,
      "stateMutability": "view",
      "type": "function"
    }
  ],
  "bytecode": "0x608060405234801561001057600080fd5b50610104806100206000396000f3fe6080604052348015600f57600080fd5b506004361060465760003560e01c80630da665a414604b5780635014b98414607657806353cedc1814607e578063d24b824e14609a575b600080fd5b607460048036036020811015605f57600080fd5b810190808035906020019092919050505060a2565b005b607c60ac565b005b608460be565b6040518082815260200191505060405180910390f35b60a060c7565b005b8060008190555050565b60008081546001900391905081905550565b60008054905090565b60008081546001019190508190555056fea165627a7a72305820ebfab62e332440d575c683f474abb6d72475d0e81d6b969068a25e249a8a55680029",
  "source": "// Hello\n\npragma solidity ^0.5.8;\n\ncontract Simple\n{\n  uint num;\n\n  function set_num(uint x) public\n  {\n    num = x;\n  }\n\n  function inc_num () public\n  {\n    ++num;\n  }\n\n  function dec_num () public\n  {\n    --num;\n  }\n\n  function reveal_num () public view returns (uint) {\n    return num;\n  }\n}\n",
  "sourcePath": "/Users/simont/Downloads/SmartContract/simple_contract/simple_contract/contracts/Simple.sol",
  "compiler": {
    "name": "solc",
    "version": "0.5.8+commit.23d335f2.Emscripten.clang"
  },
  "schemaVersion": "3.0.16",
  "updatedAt": "2019-10-20T20:32:09.309Z",
  "devdoc": {
    "methods": {}
  },
  "userdoc": {
    "methods": {}
  }
}